:020000040800F2
:1000000000280020F90600081D0600082306000845
:10001000290600082F060008350600080000000029
:100020000000000000000000000000003B06000887
:100030004706000800000000530600085F0600089D
:100040004107000841070008410700084107000870
:100050004107000841070008410700084107000860
:100060004107000841070008410700084107000850
:100070004107000841070008410700084107000840
:100080004107000841070008410700084107000830
:100090004107000841070008410700084107000820
:1000A0004107000841070008410700084107000810
:1000B0004107000841070008000000004107000850
:1000C0004107000800000000000000004107000890
:1000D000000000006D060008410700080000000055
:1000E0004107000841070008410700080000000020
:1000F0000000000000000000000000000000000000
:0C01000000000000000000005FF808F1A3
:10010C0010B5054C237833B9044B13B10448AFF345
:10011C0000800123237010BD70000020000000003F
:10012C00182D000808B5034B1BB103490348AFF366
:10013C00008008BD0000000074000020182D00088D
:10014C00034613F8012B002AFBD1181A013870470B
:10015C00B0B590B000AF00F0EFFA00F029F800F065
:10016C008DF800F061F84FF48063FB63FA6B134673
:10017C005B019B1A03F10063BB6304237B63302395
:10018C003B630A4B3C461D460FCD0FC40FCD0FC42D
:10019C0095E80F0084E80F003B46396B184600F0D9
:1001AC00DFF8396BB86B00F069F9FEE7302D000809
:1001BC0080B590B000AF07F1180328220021184633
:1001CC0002F056F93B1D00221A605A609A60DA6000
:1001DC001A610223BB610123BB621023FB62002363
:1001EC007B6307F11803184601F022F80346002B35
:1001FC0001D000F083F90F237B600023BB60002348
:10020C00FB6000233B6100237B613B1D00211846F2
:10021C0001F08EFA0346002B01D000F06FF900BFFD
:10022C004037BD4680BD000080B500AF114B124A6F
:10023C001A60104B4FF416525A600E4B00229A6003
:10024C000C4B0022DA600B4B00221A61094B0C227A
:10025C005A61084B00229A61064B0022DA6105486C
:10026C0001F002FC0346002B01D000F047F900BF5F
:10027C0080BD00BF980000200038014080B483B0DE
:10028C0000AF084B9B69074A43F004039361054B8D
:10029C009B6903F004037B607B6800BF0C37BD4691
:1002AC0080BC70470010024080B59AB002AF7860F5
:1002BC000023FB647B687B650123BB650023BB6467
:1002CC0007F1080340220021184602F0D1F800F093
:1002DC00C3FC07F1480207F14C031146184600F025
:1002EC00ADFD0346002B17D000F0ECFCF86507F1D0
:1002FC000800FB6D174A402102F0C2F807F1080311
:10030C001846FFF71DFF03469AB207F10801642354
:10031C00114801F0F6FBFEE77B6803F2FF3307F1AF
:10032C00080000937B680D4A402102F0A9F807F100
:10033C0008031846FFF704FF03469AB207F10801B9
:10034C006423054801F0DDFB00F0ACFC00BF603716
:10035C00BD4680BD602D0008980000207C2D000853
:10036C0090B59BB002AF786039600423BB654FF445
:10037C0080637B657A6D13465B019B1A03F1006306
:10038C003B65642319223849384801F0BAFB386DB3
:10039C00FFF78AFF64230F223549344801F0B1FB83
:1003AC000023FB6557E007F10803402200211846A3
:1003BC0002F05EF8FB6DBA6D02FB03F33A6D134469
:1003CC00FB6400F049FCFB6D7A6813441B78DBB2CC
:1003DC004FF000041A462346F96C012000F0CCFBC8
:1003EC000346002B17D000F06DFCB86407F1080031
:1003FC00BB6C204A402102F043F807F10803184671
:10040C00FFF79EFE03469AB207F1080164231748D2
:10041C0001F077FBFEE7FB6D7A6813441B781A46F4
:10042C0007F10800FB6C00931346134A402102F0BD
:10043C0027F807F108031846FFF782FE03469AB225
:10044C0007F108016423094801F05BFB00F02AFC6A
:10045C00FB6D0133FB65FA6D3B689A42A3DB00BF71
:10046C006437BD4690BD00BF102F000898000020D7
:10047C002C2F0008B82D00083C2F000880B596B032
:10048C0000AF7860396004233B6507F10803402214
:10049C000021184601F0ECFF00237B6522E07B6D08
:1004AC003A6D02FB03F37A681344FB64FB6C1B8804
:1004BC00A7F84A30B7F84A2007F108030D49184647
:1004CC0002F012F807F108031846FFF739FE03464D
:1004DC009AB207F108016423074801F012FB7B6D07
:1004EC0001337B657A6D3B689A42D8DB00BF583785
:1004FC00BD4680BD702F00089800002080B400AF6E
:10050C0072B6FEE780B485B000AF154B9B69144AF8
:10051C0043F001039361124B9B6903F00103BB6031
:10052C00BB680F4BDB690E4A43F08053D3610C4B15
:10053C00DB6903F080537B607B680A4B5B68FB6074
:10054C00FB6823F0E063FB60FB6843F08063FB60B7
:10055C00044AFB68536000BF1437BD4680BC70472B
:10056C00001002400000014080B588B000AF7860F8
:10057C0007F1100300221A605A609A60DA607B68F7
:10058C001B68204A934239D11F4B9B691E4A43F486
:10059C00804393611C4B9B6903F48043FB60FB68B5
:1005AC00194B9B69184A43F004039361164B9B69E2
:1005BC0003F00403BB60BB684FF400733B61022380
:1005CC007B610323FB6107F1100319460F4800F010
:1005DC00DDFC4FF480633B6100237B610023BB6136
:1005EC0007F110031946094800F0D0FC0022002145
:1005FC00252000F0DAF9252000F0F3F900BF2037B0
:10060C00BD4680BD0038014000100240000801408A
:10061C0080B400AFFEE780B400AFFEE780B400AF5B
:10062C00FEE780B400AFFEE780B400AFFEE780B415
:10063C0000AF00BFBD4680BC704780B400AF00BFA8
:10064C00BD4680BC704780B400AF00BFBD4680BCC7
:10065C00704780B500AF00F0B5F800BF80BD00005A
:10066C0080B500AF024801F0DFFA00BF80BD00BFCB
:10067C009800002080B586B000AF7860144A154B06
:10068C00D31A7B617B693B61134B1B68002B02D136
:10069C00114B124A1A60104B1A687B6813443A6962
:1006AC009A4207D201F0BAFE02460C2313604FF0B7
:1006BC00FF3309E0084B1B68FB60074B1A687B682B
:1006CC001344054A1360FB6818461837BD4680BDB5
:1006DC0000280020000400008C00002008010020ED
:1006EC0080B400AF00BFBD4680BC70470C480D49BC
:1006FC000D4A002302E0D458C4500433C4188C4271
:10070C00F9D30A4A0A4C002301E013600432A242D6
:10071C00FBD3FFF7E5FF01F087FEFFF719FD7047EC
:10072C000000002070000020DC2F0008700000206A
:10073C0004010020FEE7000080B500AF084B1B68E9
:10074C00074A43F010031360032000F023F90F2035
:10075C0000F008F8FFF7D6FE0023184680BD00BF56
:10076C000020024080B582B000AF7860124B1A684E
:10077C00124B1B7819464FF47A73B3FBF1F3B2FBAF
:10078C00F3F3184600F03BF90346002B01D001238C
:10079C000EE07B680F2B0AD8002279684FF0FF30EF
:1007AC0000F003F9064A7B681360002300E0012384
:1007BC0018460837BD4680BD000000200800002008
:1007CC000400002080B400AF054B1B781A46054B83
:1007DC001B681344034A136000BFBD4680BC7047BE
:1007EC0008000020DC00002080B400AF024B1B6826
:1007FC001846BD4680BC7047DC00002080B485B034
:10080C0000AF78607B6803F00703FB600C4BDB6880
:10081C00BB60BA684FF6FF031340BB60FB681A025B
:10082C00BB68134343F0BF6343F40033BB60044A1B
:10083C00BB68D36000BF1437BD4680BC704700BF97
:10084C0000ED00E080B400AF044BDB681B0A03F042
:10085C0007031846BD4680BC704700BF00ED00E0A2
:10086C0080B483B000AF0346FB7197F90730002BBF
:10087C000BDBFB7903F01F02064997F907305B0984
:10088C00012000FA02F241F8232000BF0C37BD46CC
:10089C0080BC704700E100E080B483B000AF034639
:1008AC003960FB7197F90730002B0ADB3B68DAB231
:1008BC000C4997F907301201D2B20B4483F800238C
:1008CC000AE03B68DAB20849FB7903F00F03043BFA
:1008DC001201D2B20B441A7600BF0C37BD4680BC55
:1008EC00704700BF00E100E000ED00E080B489B08B
:1008FC0000AFF860B9607A60FB6803F00703FB6136
:10090C00FB69C3F10703042B28BF0423BB61FB69FC
:10091C000433062B02D9FB69033B00E000237B6107
:10092C004FF0FF32BB6902FA03F3DA43BB681A409B
:10093C007B699A404FF0FF317B6901FA03F3D9438D
:10094C007B680B40134318462437BD4680BC704768
:10095C0080B582B000AF78607B68013BB3F1807FDB
:10096C0001D301230FE00A4A7B68013B53600F213E
:10097C004FF0FF30FFF790FF054B00229A60044BBD
:10098C0007221A60002318460837BD4680BD00BFF9
:10099C0010E000E080B582B000AF78607868FFF7B7
:1009AC002DFF00BF0837BD4680BD80B586B000AFB7
:1009BC000346B9607A60FB7300237B61FFF742FF4B
:1009CC0078617A68B9687869FFF790FF024697F901
:1009DC000F3011461846FFF75FFF00BF1837BD46B2
:1009EC0080BD80B582B000AF0346FB7197F907302C
:1009FC001846FFF735FF00BF0837BD4680BD80B5F0
:100A0C0082B000AF78607868FFF7A2FF0346184603
:100A1C000837BD4680BD80B485B000AF7860002338
:100A2C00FB737B6893F82130022B08D07B6804227F
:100A3C009A637B68002283F82020012320E07B68E6
:100A4C001B681A687B681B6822F00E021A607B68B0
:100A5C001B681A687B681B6822F001021A607B68AD
:100A6C001A6C7B68DB6B012101FA02F25A607B681D
:100A7C00012283F821207B68002283F82020FB7B55
:100A8C0018461437BD4680BC7047000080B584B052
:100A9C0000AF78600023FB737B6893F82130022B46
:100AAC0005D07B6804229A630123FB7351E07B68B9
:100ABC001B681A687B681B6822F00E021A607B6840
:100ACC001B681A687B681B6822F001021A607B683D
:100ADC001B68224A934229D07B681B68204A9342A8
:100AEC0022D07B681B681F4A93421AD07B681B6814
:100AFC001D4A934212D07B681B681C4A93420AD051
:100B0C007B681B681A4A934202D14FF480130EE0A3
:100B1C004FF080730BE04FF4803308E04FF48053B8
:100B2C0005E04FF4807302E0102300E00123114A2A
:100B3C0053607B68012283F821207B68002283F8B4
:100B4C0020207B685B6B002B03D07B685B6B786829
:100B5C009847FB7B18461037BD4680BD0800024005
:100B6C001C00024030000240440002405800024089
:100B7C006C00024000000240F0B587B000AFF86096
:100B8C00B960C7E900230123FB750023BB75002363
:100B9C007B752F4B1B7E012B01D1022354E02C4B78
:100BAC0001221A764CF2503000F0B2F80346FB7575
:100BBC00FB7D002B44D1FB68012B02D101237B75FB
:100BCC0007E0FB68022B02D102237B7501E00423B2
:100BDC007B750023BB752DE0BB7D5A00BB6802EB17
:100BEC00030CBB7D1901D7E90023C1F12006A1F14B
:100BFC00200022FA01F403FA06F6344323FA00F03B
:100C0C00044323FA01F5A3B21946604600F064F8D8
:100C1C004CF2503000F07CF80346FB750D4B1B6911
:100C2C000C4A23F001031361FB7D002B07D1BB7D24
:100C3C000133BB75BA7D7B7D9A42CDD300E000BFFA
:100C4C00034B00221A76FB7D18461C37BD46F0BDBF
:100C5C00E00000200020024080B483B000AF0023ED
:100C6C00FB710D4B1B6903F08003002B0DD00A4B5D
:100C7C000A4A5A60084B0A4A5A60074B1B6903F030
:100C8C008003002B01D00123FB71FB7918460C3734
:100C9C00BD4680BC704700BF002002402301674561
:100CAC00AB89EFCD80B400AF054B1B69044A43F010
:100CBC008003136100231846BD4680BC704700BFFB
:100CCC000020024080B400AF024BDB691846BD46E1
:100CDC0080BC7047E000002080B483B000AF786027
:100CEC000B467B80084B0022DA61084B1B69074AD4
:100CFC0043F0010313617B687A881A8000BF0C37BC
:100D0C00BD4680BC704700BFE000002000200240C0
:100D1C0080B584B000AF7860FFF766FDF86010E036
:100D2C007B68B3F1FF3F0CD07B68002B07D0FFF73B
:100D3C005BFD0246FB68D31A7A689A4201D2032300
:100D4C0025E0154BDB6803F00103002BE8D1124BB7
:100D5C00DB6803F02003002B02D00F4B2022DA605B
:100D6C000D4BDB6803F01003002B0BD10A4BDB6936
:100D7C0003F00103002B05D1074BDB6803F00403E0
:100D8C00002B03D000F00AF8012300E000231846E2
:100D9C001037BD4680BD00BF0020024080B483B038
:100DAC0000AF00237B60234BDB6803F01003002BA8
:100DBC0009D0214BDB6943F002031F4AD3617B68E6
:100DCC0043F010037B601B4BDB6803F00403002B28
:100DDC0009D0194BDB6943F00103174AD3617B68D7
:100DEC0043F004037B60134BDB6903F00103002B1E
:100DFC000BD0114BDB6943F004030F4AD3610D4B4D
:100E0C00DB690C4A23F00103D3617B6840F20112C9
:100E1C00934206D1074BDB69064A23F00103D361E9
:100E2C0002E0044A7B68D36000BF0C37BD4680BC2F
:100E3C00704700BF00200240E000002080B584B065
:100E4C0000AF786039600123FB730023BB602F4B2C
:100E5C001B7E012B01D1022353E02C4B01221A766D
:100E6C007B681B68022B16D14CF25030FFF750FFF9
:100E7C000346002B41D1012000F04CF84CF25030CD
:100E8C00FFF746FF0346FB73214B1B69204A23F0F7
:100E9C000403136131E04CF25030FFF739FF034685
:100EAC00002B2AD13B684FF0FF321A607B689B689D
:100EBC00BB6019E0B86800F049F84CF25030FFF70D
:100ECC0027FF0346FB73124B1B69114A23F00203E5
:100EDC001361FB7B002B03D03B68BA681A600CE0F3
:100EEC00BB6803F58063BB607B68DB689A027B6838
:100EFC009B681344BA689A42DCD3044B00221A76DE
:100F0C00FB7B18461037BD4680BD00BFE0000020BB
:100F1C000020024080B483B000AF7860094B0022FF
:100F2C00DA61094B1B69084A43F004031361064B51
:100F3C001B69054A43F04003136100BF0C37BD46E3
:100F4C0080BC7047E00000200020024080B483B0D9
:100F5C0000AF78600B4B0022DA610B4B1B690A4A1D
:100F6C0043F002031361084A7B685361064B1B690B
:100F7C00054A43F04003136100BF0C37BD4680BCEB
:100F8C00704700BFE00000200020024080B48BB00E
:100F9C0000AF7860396000237B6200233B6221E163
:100FAC0001227B6A02FA03F3FB613B681B68FA6956
:100FBC001340BB61BA69FB699A4240F010813B68EF
:100FCC005B68122B34D0122B0DD8022B2BD0022B9A
:100FDC0004D8002B31D0012B1CD048E0032B43D07C
:100FEC00112B1BD043E0864A934226D0844A93426D
:100FFC0006D8844A934220D0834A93421DD036E0CF
:10100C00824A934219D0824A934216D0814A934223
:10101C0013D02CE03B68DB683B6228E03B68DB6864
:10102C0004333B6223E03B68DB6808333B621EE021
:10103C003B68DB680C333B6219E03B689B68002B18
:10104C0002D104233B6212E03B689B68012B05D163
:10105C0008233B627B68FA691A6108E008233B624B
:10106C007B68FA695A6102E000233B6200BFBB69EE
:10107C00FF2B01D87B6801E07B6804337B61BB6983
:10108C00FF2B02D87B6A9B0002E07B6A083B9B002B
:10109C003B617B691A680F213B6901FA03F3DB435F
:1010AC001A40396A3B6901FA03F31A437B691A60E7
:1010BC003B685B6803F08053002B00F09080564B2C
:1010CC009B69554A43F001039361534B9B6903F0B1
:1010DC000103BB60BB68514A7B6A9B08023352F820
:1010EC002330FB607B6A03F003039B000F2202FAA0
:1010FC0003F3DB43FA681340FB607B68484A934276
:10110C000DD07B68474A934207D07B68464A93428E
:10111C0001D1022304E0032302E0012300E00023B9
:10112C007A6A02F0030292009340FA681343FB6060
:10113C003A497B6A9B080233FA6841F823203B68E2
:10114C005B6803F48033002B06D0384B1A683749A0
:10115C00BB6913430B6006E0344B1A68BB69DB4375
:10116C00324913400B603B685B6803F40033002B7F
:10117C0006D02E4B5A682D49BB6913434B6006E0D1
:10118C002A4B5A68BB69DB43284913404B603B68C8
:10119C005B6803F48013002B06D0244B9A68234918
:1011AC00BB6913438B6006E0204B9A68BB69DB4339
:1011BC001E4913408B603B685B6803F40013002BE3
:1011CC0006D01A4BDA681949BB691343CB6006E0A9
:1011DC00164BDA68BB69DB4314491340CB607B6A5E
:1011EC0001337B623B681A687B6A22FA03F3002B9B
:1011FC007FF4D6AE00BF2C37BD4680BC704700BF15
:10120C00000021100000111000001210000031101D
:10121C0000003210000022100010024000000140BB
:10122C0000080140000C0140001001400004014086
:10123C0080B586B000AF78607B68002B01D10123AC
:10124C006CE27B681B6803F00103002B00F08780C5
:10125C00924B5B6803F00C03042B0CD08F4B5B6838
:10126C0003F00C03082B12D18C4B5B6803F4803316
:10127C00B3F5803F0BD1894B1B6803F40033002B73
:10128C006CD07B685B68002B68D1012346E27B68DD
:10129C005B68B3F5803F06D1804B1B687F4A43F4F3
:1012AC00803313602EE07B685B68002B0CD17B4B8A
:1012BC001B687A4A23F480331360784B1B68774A97
:1012CC0023F4802313601DE07B685B68B3F5A02FCB
:1012DC000CD1724B1B68714A43F4802313606F4B23
:1012EC001B686E4A43F4803313600BE06B4B1B6836
:1012FC006A4A23F480331360684B1B68674A23F4F3
:10130C00802313607B685B68002B13D0FFF76CFAAB
:10131C00386108E0FFF768FA02463B69D31A642B80
:10132C0001D90323FAE15D4B1B6803F40033002B56
:10133C00F0D014E0FFF758FA386108E0FFF754FAE0
:10134C0002463B69D31A642B01D90323E6E1534BC4
:10135C001B6803F40033002BF0D100E000BF7B6866
:10136C001B6803F00203002B63D04C4B5B6803F04B
:10137C000C03002B0BD0494B5B6803F00C03082BC0
:10138C001CD1464B5B6803F48033002B16D1434BC6
:10139C001B6803F00203002B05D07B681B69012B33
:1013AC0001D00123BAE13D4B1B6823F0F8027B68A6
:1013BC005B69DB00394913430B603AE07B681B69BE
:1013CC00002B20D0364B01221A60FFF70DFA386142
:1013DC0008E0FFF709FA02463B69D31A022B01D940
:1013EC0003239BE12D4B1B6803F00203002BF0D071
:1013FC002A4B1B6823F0F8027B685B69DB002749EA
:10140C0013430B6015E0264B00221A60FFF7ECF932
:10141C00386108E0FFF7E8F902463B69D31A022B62
:10142C0001D903237AE11D4B1B6803F00203002B47
:10143C00F0D17B681B6803F00803002B3AD07B6863
:10144C009B69002B19D0174B01221A60FFF7CCF9BE
:10145C00386108E0FFF7C8F902463B69D31A022B42
:10146C0001D903235AE10D4B5B6A03F00203002BF5
:10147C00F0D0012000F0DAFA1CE00A4B00221A60CE
:10148C00FFF7B2F938610FE0FFF7AEF902463B699E
:10149C00D31A022B08D9032340E100BF00100240ED
:1014AC0000004242800442429E4B5B6A03F00203FE
:1014BC00002BE9D17B681B6803F00403002B00F0C0
:1014CC00A6800023FB75974BDB6903F08053002B40
:1014DC000DD1944BDB69934A43F08053D361914B0C
:1014EC00DB6903F08053BB60BB680123FB758E4B3B
:1014FC001B6803F48073002B18D18B4B1B688A4A32
:10150C0043F480731360FFF76FF9386108E0FFF75D
:10151C006BF902463B69D31A642B01D90323FDE016
:10152C00814B1B6803F48073002BF0D07B68DB6865
:10153C00012B06D17B4B1B6A7A4A43F001031362E1
:10154C002DE07B68DB68002B0CD1764B1B6A754A4F
:10155C0023F001031362734B1B6A724A23F00403DA
:10156C0013621CE07B68DB68052B0CD16D4B1B6A8E
:10157C006C4A43F0040313626A4B1B6A694A43F0DA
:10158C00010313620BE0674B1B6A664A23F00103ED
:10159C001362644B1B6A634A23F0040313627B6877
:1015AC00DB68002B15D0FFF71FF938610AE0FFF755
:1015BC001BF902463B69D31A41F28832934201D996
:1015CC000323ABE0574B1B6A03F00203002BEED056
:1015DC0014E0FFF709F938610AE0FFF705F9024654
:1015EC003B69D31A41F28832934201D9032395E027
:1015FC004C4B1B6A03F00203002BEED1FB7D012B3D
:10160C0005D1484BDB69474A23F08053D3617B6893
:10161C00DB69002B00F08180424B5B6803F00C030C
:10162C00082B61D07B68DB69022B46D13F4B002233
:10163C001A60FFF7D9F8386108E0FFF7D5F80246D1
:10164C003B69D31A022B01D9032367E0354B1B6886
:10165C0003F00073002BF0D17B681B6AB3F5803F5D
:10166C0008D1304B5B6823F400327B689B682D49B2
:10167C0013434B602B4B5B6823F474127B68196A21
:10168C007B685B6A0B43274913434B60274B012252
:10169C001A60FFF7A9F8386108E0FFF7A5F80246D1
:1016AC003B69D31A022B01D9032337E01D4B1B686E
:1016BC0003F00073002BF0D02FE01C4B00221A60BB
:1016CC00FFF792F8386108E0FFF78EF802463B69A5
:1016DC00D31A022B01D9032320E0124B1B6803F011
:1016EC000073002BF0D118E07B68DB69012B01D172
:1016FC00012313E00B4B5B68FB60FB6803F4803247
:10170C007B681B6A9A4206D1FB6803F470127B68F3
:10171C005B6A9A4201D0012300E000231846183777
:10172C00BD4680BD00100240007000406000424287
:10173C0080B584B000AF786039607B68002B01D134
:10174C000123D0E06A4B1B6803F007033A689A4206
:10175C0010D9674B1B6823F0070265493B6813439C
:10176C000B60634B1B6803F007033A689A4201D085
:10177C000123B8E07B681B6803F00203002B20D028
:10178C007B681B6803F00403002B05D0594B5B6886
:10179C00584A43F4E06353607B681B6803F008030A
:1017AC00002B05D0534B5B68524A43F46053536093
:1017BC00504B5B6823F0F0027B689B684D491343E8
:1017CC004B607B681B6803F00103002B40D07B68E7
:1017DC005B68012B07D1474B1B6803F40033002BCC
:1017EC0015D101237FE07B685B68022B07D1414B4D
:1017FC001B6803F00073002B09D1012373E03D4BF0
:10180C001B6803F00203002B01D101236BE0394B61
:10181C005B6823F003027B685B68364913434B60BB
:10182C00FEF7E2FFF8600AE0FEF7DEFF0246FB6817
:10183C00D31A41F28832934201D9032353E02D4B42
:10184C005B6803F00C027B685B689B009A42EBD1EF
:10185C00274B1B6803F007033A689A4210D2244BBB
:10186C001B6823F0070222493B6813430B60204B93
:10187C001B6803F007033A689A4201D0012332E057
:10188C007B681B6803F00403002B08D0194B5B68C2
:10189C0023F4E0627B68DB68164913434B607B687A
:1018AC001B6803F00803002B09D0124B5B6823F470
:1018BC0060527B681B69DB000E4913434B6000F0E0
:1018CC0021F801460B4B5B681B0903F00F030A4A16
:1018DC00D35C21FA03F3094A1360094B1B681846C1
:1018EC00FEF740FF002318461037BD4680BD00BFF1
:1018FC000020024000100240882F00080000002049
:10190C000400002090B48AB000AF2A4B3C1D0FCBD2
:10191C0084E80F00284B1B883B800023FB610023CD
:10192C00BB6100237B6200237B6100233B62234B62
:10193C005B68FB61FB6903F00C03042B02D0082BE2
:10194C0003D02DE01E4B3B622DE0FB699B0C03F09A
:10195C000F0307F12802134413F8243C7B61FB6945
:10196C0003F48033002B13D0144B5B685B0C03F037
:10197C00010307F12802134413F8283CBB617B696F
:10198C000F4A02FB03F2BB69B2FBF3F37B6204E088
:10199C007B690C4A02FB03F37B627B6A3B6202E0CD
:1019AC00074B3B6200BF3B6A18462837BD4690BCCC
:1019BC00704700BF742F0008842F000800100240ED
:1019CC0000127A0000093D0080B400AF024B1B6886
:1019DC001846BD4680BC70470000002080B500AFA3
:1019EC00FFF7F2FF0146054B5B681B0A03F0070388
:1019FC00034AD35C21FA03F3184680BD0010024061
:101A0C00982F000880B500AFFFF7DEFF0146054BAD
:101A1C005B68DB0A03F00703034AD35C21FA03F388
:101A2C00184680BD00100240982F000880B485B085
:101A3C0000AF78600A4B1B680A4AA2FB03235B0ABF
:101A4C007A6802FB03F3FB6000BFFB685A1EFA6066
:101A5C00002BF9D100BF1437BD4680BC704700BFC6
:101A6C0000000020D34D621080B582B000AF7860CA
:101A7C007B68002B01D101233FE07B6893F83D305C
:101A8C00DBB2002B06D17B68002283F83C207868FF
:101A9C00FEF76AFD7B68242283F83D207B681B6877
:101AAC00DA687B681B6822F40052DA60786800F010
:101ABC0027FC7B681B681A697B681B6822F49042C0
:101ACC001A617B681B685A697B681B6822F02A02C2
:101ADC005A617B681B68DA687B681B6842F40052A9
:101AEC00DA607B6800221A647B68202283F83D2030
:101AFC007B68202283F83E20002318460837BD4619
:101B0C0080BD80B58AB002AFF860B9603B60134607
:101B1C00FB8000237B61FB6893F83D30DBB2202B0C
:101B2C007CD1BB68002B02D0FB88002B01D1012398
:101B3C0075E0FB6893F83C30012B01D102236EE079
:101B4C00FB68012283F83C20FB6800221A64FB68C6
:101B5C00212283F83D20FEF747FE7861FB68FA8866
:101B6C009A84FB68FA88DA84FB689B68B3F5805F1B
:101B7C0008D1FB681B69002B04D10023FB61BB68F7
:101B8C00BB6103E0BB68FB610023BB61FB68002207
:101B9C0083F83C202AE03B6800937B69002280217B
:101BAC00F86800F013FA0346002B01D0032336E04B
:101BBC00FB69002B0BD1BB691B881A46FB681B68A1
:101BCC00C2F308025A60BB690233BB6107E0FB69D0
:101BDC001A78FB681B685A60FB690133FB61FB6870
:101BEC00DB8C9BB2013B9AB2FB68DA84FB68DB8C22
:101BFC009BB2002BCFD13B6800937B690022402124
:101C0C00F86800F0E3F90346002B01D0032306E04B
:101C1C00FB68202283F83D20002300E002231846B5
:101C2C002037BD4680BD000080B58AB000AF78601B
:101C3C007B681B681B687B627B681B68DB683B628C
:101C4C007B681B685B69FB610023BB6100237B61C4
:101C5C007B6A03F00F03BB61BB69002B0DD17B6A60
:101C6C0003F02003002B08D03B6A03F02003002B69
:101C7C0003D0786800F09BFA7CE1BB69002B00F084
:101C8C00B180FB6903F00103002B05D13B6A03F41F
:101C9C009073002B00F0A6807B6A03F00103002BED
:101CAC000AD03B6A03F48073002B05D07B681B6C55
:101CBC0043F001027B681A647B6A03F00403002B77
:101CCC000AD0FB6903F00103002B05D07B681B6C69
:101CDC0043F002027B681A647B6A03F00203002B58
:101CEC000AD0FB6903F00103002B05D07B681B6C49
:101CFC0043F004027B681A647B6A03F00803002B30
:101D0C000FD03B6A03F02003002B04D1FB6903F0D6
:101D1C000103002B05D07B681B6C43F008027B6829
:101D2C001A647B681B6C002B00F01F817B6A03F02C
:101D3C002003002B07D03B6A03F02003002B02D0BA
:101D4C00786800F034FA7B681B685B6903F0400329
:101D5C00002B14BF01230023DBB27B617B681B6C5F
:101D6C0003F00803002B02D17B69002B31D078687B
:101D7C0000F076F97B681B685B6903F04003002B6D
:101D8C0023D07B681B685A697B681B6822F0400271
:101D9C005A617B689B6B002B13D07B689B6B774ADB
:101DAC005A637B689B6B1846FEF770FE0346002B4C
:101DBC0016D07B689B6B5B6B7A68926B104698476E
:101DCC000EE0786800F0EEF80AE0786800F0EAF8C7
:101DDC0006E0786800F0E6F87B6800221A64C4E03C
:101DEC0000BFC2E07B681B6B012B40F0A1807B6ABB
:101DFC0003F01003002B00F09B803B6A03F01003F0
:101E0C00002B00F095800023FB607B681B681B682F
:101E1C00FB607B681B685B68FB60FB687B681B680E
:101E2C005B6903F04003002B4ED07B689B6B1B68F7
:101E3C005B683B823B8A002B00F099807B689B8D12
:101E4C003A8A9A4280F093807B683A8ADA857B687A
:101E5C009B6B9B69202B2BD07B681B68DA687B689B
:101E6C001B6822F48072DA607B681B685A697B6895
:101E7C001B6822F001025A617B681B685A697B68F7
:101E8C001B6822F040025A617B68202283F83E20B6
:101E9C007B6800221A637B681B68DA687B681B68A6
:101EAC0022F01002DA607B689B6B1846FEF7B3FDDC
:101EBC007B689A8D7B68DB8D9BB2D31A9BB21946DB
:101ECC00786800F078F852E07B689A8D7B68DB8D3F
:101EDC009BB2D31A7B827B68DB8D9BB2002B48D0E4
:101EEC007B8A002B45D07B681B68DA687B681B6893
:101EFC0022F49072DA607B681B685A697B681B68F5
:101F0C0022F001025A617B68202283F83E207B6814
:101F1C0000221A637B681B68DA687B681B6822F0F6
:101F2C001002DA607B8A1946786800F044F820E0E9
:101F3C007B6A03F08003002B08D03B6A03F080031C
:101F4C00002B03D0786800F0CBF813E07B6A03F029
:101F5C004003002B0ED03B6A03F04003002B09D04A
:101F6C00786800F00CF900BF04E000BF02E000BF8D
:101F7C0000E000BF2837BD4680BD00BFC52000086B
:101F8C0080B483B000AF786000BF0C37BD4680BC16
:101F9C00704780B483B000AF786000BF0C37BD468B
:101FAC0080BC704780B483B000AF786000BF0C3742
:101FBC00BD4680BC704780B483B000AF78600B46E0
:101FCC007B8000BF0C37BD4680BC704780B584B0A9
:101FDC0000AFF860B9603B601346FB712CE0BB6945
:101FEC00B3F1FF3F28D0BB69002B07D0FEF7FCFBF9
:101FFC0002463B68D31ABA699A421DD2FB681B6829
:10200C00DA68FB681B6822F4D072DA60FB681B6824
:10201C005A69FB681B6822F001025A61FB68202296
:10202C0083F83D20FB68202283F83E20FB680022C9
:10203C0083F83C2003230FE0FB681B681A68BB681D
:10204C001340BA689A420CBF01230023DBB21A4634
:10205C00FB799A42C3D0002318461037BD4680BD89
:10206C0080B483B000AF78607B681B68DA687B68EB
:10207C001B6822F49072DA607B681B685A697B6873
:10208C001B6822F001025A617B681B6B012B07D184
:10209C007B681B68DA687B681B6822F01002DA60C8
:1020AC007B68202283F83E207B6800221A6300BFE5
:1020BC000C37BD4680BC704780B584B000AF7860EB
:1020CC007B685B6AFB60FB680022DA85FB68002298
:1020DC00DA84F868FFF766FF00BF1037BD4680BD95
:1020EC0080B485B000AF78607B6893F83D30DBB28C
:1020FC00212B3ED17B689B68B3F5805F14D17B6844
:10210C001B69002B10D17B681B6AFB60FB681B886A
:10211C001A467B681B68C2F308025A607B681B6A0C
:10212C009A1C7B681A6208E07B681B6A591C7A68E7
:10213C0011621A787B681B685A607B68DB8C9BB2D7
:10214C00013B9BB27A681946D184002B0FD17B6876
:10215C001B68DA687B681B6822F08002DA607B6897
:10216C001B68DA687B681B6842F04002DA60002367
:10217C0000E0022318461437BD4680BC704780B57A
:10218C0082B000AF78607B681B68DA687B681B687C
:10219C0022F04002DA607B68202283F83D207868C8
:1021AC00FFF7EEFE002318460837BD4680BD80B50C
:1021BC0086B000AF78607B6893F83E30DBB2222BA0
:1021CC0040F099807B689B68B3F5805F17D17B6882
:1021DC001B69002B13D100237B617B689B6A3B61DD
:1021EC007B681B685B689BB2C3F308039AB23B69BC
:1021FC001A807B689B6A9A1C7B689A6226E07B68D3
:10220C009B6A7B6100233B617B689B68B3F5805FB5
:10221C0007D07B689B68002B0AD17B681B69002B5D
:10222C0006D17B681B685B68DAB27B691A7008E0C0
:10223C007B681B685B68DBB203F07F03DAB27B69F7
:10224C001A707B689B6A5A1C7B689A627B68DB8D70
:10225C009BB2013B9BB27A681946D185002B48D1C1
:10226C007B681B68DA687B681B6822F02002DA60E6
:10227C007B681B68DA687B681B6822F48072DA6002
:10228C007B681B685A697B681B6822F001025A61E3
:10229C007B68202283F83E207B681B6B012B23D1AB
:1022AC007B6800221A637B681B68DA687B681B6892
:1022BC0022F01002DA607B681B681B6803F01003C5
:1022CC00102B0AD10023FB607B681B681B68FB602A
:1022DC007B681B685B68FB60FB687B689B8D1946A1
:1022EC007868FFF768FE02E07868FFF752FE00237B
:1022FC0002E0002300E0022318461837BD4680BDDB
:10230C0080B584B000AF78607B681B681B6923F4D0
:10231C0040517B68DA687B681B680A431A617B68EA
:10232C009A687B681B691A437B685B691343BB60C3
:10233C007B681B68DB6823F4B05323F00C037A68CA
:10234C001268B9680B43D3607B681B685B6923F424
:10235C0040717B689A697B681B680A435A617B6889
:10236C001B682C4A934203D1FFF74CFBF86002E048
:10237C00FFF734FBF860FA6813469B0013449A008D
:10238C001A447B685B689B00B2FBF3F3224AA2FB06
:10239C0003235B091901FA6813469B0013449A0046
:1023AC001A447B685B689B00B2FBF3F21A4BA3FBED
:1023BC0002035B09642000FB03F3D31A1B013233C5
:1023CC00154AA2FB03235B0903F0F0031944FA68D6
:1023DC0013469B0013449A001A447B685B689B006D
:1023EC00B2FBF3F20C4BA3FB02035B09642000FB72
:1023FC0003F3D31A1B013233074AA2FB03235B09F5
:10240C0003F00F027B681B680A449A6000BF103708
:10241C00BD4680BD003801401F85EB51014B18684B
:10242C00704700BF0C00002070B500250C4E0D4C01
:10243C00A41BA410A54209D100F068FC00250A4E8B
:10244C000A4CA41BA410A54205D170BD56F825302A
:10245C0098470135EEE756F8253098470135F2E7F5
:10246C00D42F0008D42F0008D42F0008D82F000830
:10247C0003460244934200D1704703F8011BF9E76D
:10248C000CB430B5174B0C1E9DB01D6808DA8B23AD
:10249C004FF0FF302B601DB0BDE8304002B07047EC
:1024AC004FF40273ADF814300CBF234604F1FF3324
:1024BC00049307934FF6FF7302900690ADF8163015
:1024CC00209A21AB02A92846019300F087F8431CFF
:1024DC00BCBF8B232B60002CDDD00022029B1A701A
:1024EC00D9E700BF0C0000200EB46FF0004100B51E
:1024FC009CB01DAB029006900791049108480949C5
:10250C0053F8042B0591006802A9019300F066F8BA
:10251C000022029B1A701CB05DF804EB03B07047EC
:10252C000C0000200802FFFF2DE9F0478E68824660
:10253C009E420C469046994637D88A8912F4906F81
:10254C0031D00223256809696F1A656905EB4505C9
:10255C0095FBF3F509F101033B449D4238BF1D4641
:10256C00530530D5294600F037FB064650B90C23ED
:10257C004FF0FF30CAF80030A38943F04003A38129
:10258C00BDE8F0873A46216900F0B6FAA38923F436
:10259C00906343F08003A38126613E4426604E463F
:1025AC006561ED1BA5604E4500D94E46324641464D
:1025BC00206800F0ACFAA36800209B1BA360236882
:1025CC001E442660DCE72A4600F060FB0646002825
:1025DC00E2D12169504600F0B3FAC8E72DE9F04F7B
:1025EC001D468B899DB01F0680460C4616460FD59E
:1025FC000B696BB9402100F0EFFA2060206128B91B
:10260C000C23C8F800304FF0FF30C8E04023636162
:10261C000023099320238DF8293030234FF0010B30
:10262C008DF82A30039537463D4615F8013B0BB122
:10263C00252B3ED1B7EB060A0BD05346324621462A
:10264C004046FFF771FF013000F0A480099B534412
:10265C0009933B78002B00F09D8000234FF0FF3254
:10266C00CDE90523049307938DF853301A932F4625
:10267C00052217F8011B504800F030FA049BD0B922
:10268C00D90644BF20228DF853201A0744BF2B22B1
:10269C008DF853202A782A2A15D02F4600200A2597
:1026AC00079A394611F8013B303B092B4DD9B8B18B
:1026BC000FE02F46B8E7404A3D46801A0BFA00F06F
:1026CC0018430490D3E7039A111D12680391002A52
:1026DC0001DB079204E0524243F002030792049399
:1026EC003B782E2B0CD17B782A2B33D1039B0237D2
:1026FC001A1D1B680392002BB8BF4FF0FF330593D4
:10270C002E4D03223978284600F0E8F938B14023E1
:10271C00401B03FA00F0049B013703430493397800
:10272C00062227487E1C8DF8281000F0D7F90028C7
:10273C0038D0244B13BB039B073323F00703083318
:10274C000393099B4B4409936DE705FB023201206F
:10275C000F46A6E700230A2519460137059338468C
:10276C0010F8012B303A092A03D9002BC8D0059157
:10277C00C6E705FB012101230746F0E703AB0093F5
:10278C002246114B04A94046AFF30080B0F1FF3F45
:10279C008146D6D1A3895B063FF535AF09981DB0AC
:1027AC00BDE8F08F03AB00932246074B04A94046CB
:1027BC0000F082F8EAE700BFA02F0008A62F00085F
:1027CC00AA2F000800000000352500082DE9F0476D
:1027DC0091461F468A680B6906469342B8BF13465A
:1027EC00C9F8003091F843200C46DDF8208012B176
:1027FC000133C9F800302368990642BFD9F800307C
:10280C000233C9F80030256815F0060507D104F12C
:10281C00190AE368D9F800209B1AAB4229DC94F81A
:10282C0043302268003318BF012392062ED404F1E2
:10283C00430239463046C047013021D02368E56851
:10284C0003F00603042B18BF0025D9F800204FF025
:10285C00000908BFAD1AA368226908BF25EAE5750F
:10286C009342C4BF9B1AED181A344D451AD100205F
:10287C0008E00123524639463046C047013003D1A7
:10288C004FF0FF30BDE8F0870135C2E73020E1188A
:10289C0081F843005A1C94F845102244023382F804
:1028AC004310C4E70123224639463046C047013065
:1028BC00E6D009F10109D8E72DE9F04301F1430C09
:1028CC000C46097E85B06E291746064698460C9A2A
:1028DC0000F0B38022D8632936D00AD8002900F042
:1028EC00B980582900F0838004F1420584F8421025
:1028FC0032E0642901D06929F6D1206813680506F5
:10290C0003F104012AD51B681160002B03DA2D2278
:10291C005B4284F843206F480A2239E0732900F0A7
:10292C009D8008D86F2920D07029DDD1236843F011
:10293C002003236003E0752917D07829D4D178239C
:10294C00654884F8453055E0136804F14205191DBB
:10295C001B68116084F8423001238CE01B6810F076
:10296C00400F116018BF1BB2CFE713682568181D04
:10297C001060280601D51B6802E06806FBD51B8891
:10298C006F2914BF0A2208225248002184F84310F0
:10299C006568002DA560C0F29580216821F00401C6
:1029AC002160002B3DD1002D40F08E806546082A19
:1029BC000BD12368DB0708D5236962689A42DEBF16
:1029CC00302305F8013C05F1FF35ACEB0503236121
:1029DC00CDF800803B4603AA21463046FFF7F6FEB1
:1029EC0001304DD14FF0FF3005B0BDE8F0833948D0
:1029FC0084F84510136821681D1D1B6815600A06B4
:102A0C000BD5CA0744BF41F0200121601BB92268D5
:102A1C0022F0200222601022B7E74D0648BF9BB27D
:102A2C00EFE76546B3FBF2F102FB1133C35C05F82B
:102A3C00013D0B460029F5D1B9E713682568181D2F
:102A4C006169106028061B6801D5196002E06A06EE
:102A5C00FBD51980002365462361B9E71368191D5E
:102A6C0011601D6862680021284600F037F808B133
:102A7C00401B606063682361002384F84330A7E740
:102A8C0023692A4639463046C0470130AAD023680C
:102A9C009B0713D4E068039B9842B8BF1846A3E782
:102AAC0001234A4639463046C04701309AD0013599
:102ABC00E368039A9B1AAB42F2DCEBE7002504F1C6
:102ACC001909F5E7002BACD1037804F1420584F821
:102ADC0042306CE7B12F0008C22F000810B5C9B204
:102AEC0002449042034601D1002303E01C780130DC
:102AFC008C42F6D1184610BD10B5431E0A449142C3
:102B0C0000D110BD11F8014B03F8014FF7E78842D3
:102B1C0010B501EB020307D8421E99420AD011F8F6
:102B2C00014B02F8014FF8E78342F5D98118D21A0C
:102B3C00D34200D110BD13F8014D01F8014DF7E758
:102B4C0038B50546002943D051F8043C0C1F002B26
:102B5C00B8BFE41800F0D0F81E4A1368104633B919
:102B6C00636014602846BDE8384000F0C6B8A34244
:102B7C000BD921686218934201BF1A685B6852181E
:102B8C00226063600460EDE713465A680AB1A24202
:102B9C00FAD919685818A0420BD12068014458186A
:102BAC0082421960DED110685268014419605A6083
:102BBC00D8E702D90C232B60D4E7206821188A426D
:102BCC0001BF116852680918216062605C60C9E736
:102BDC0038BD00BF9000002070B5CD1C25F003055A
:102BEC0008350C2D38BF0C25002D064601DBA942FB
:102BFC0003D90C233360002070BD00F07DF8214A0E
:102C0C001468214691B9204C23681BB9304600F05A
:102C1C0063F820602946304600F05EF8431C24D14E
:102C2C000C233046336000F068F8E4E70B685B1B5C
:102C3C0018D40B2B0FD90B60CC18CD50304600F0AC
:102C4C005CF804F10B00231D20F00700C31AD3D04D
:102C5C005A42E250D0E74B688C4216BF6360136057
:102C6C000C46EBE70C464968CCE7C41C24F0030483
:102C7C00A04205D0211A304600F02EF80130CFD0FA
:102C8C002560DBE79000002094000020F8B5074693
:102C9C0014460E4621B9BDE8F8401146FFF79CBF1B
:102CAC0022B9FFF74DFF25462846F8BD00F026F85F
:102CBC00A0420FD221463846FFF78EFF054600286A
:102CCC00F2D031462246FFF717FF31463846FFF760
:102CDC0037FFE9E73546E7E738B50023054C0546ED
:102CEC0008462360FDF7C6FC431C02D1236803B1E0
:102CFC002B6038BD000100207047704751F8043C30
:102D0C00181F002BBCBF0B58C0187047F8B500BF7C
:102D1C00F8BC08BC9E467047F8B500BFF8BC08BCB0
:042D2C009E46704708
:102D3000456D6265646465642053797374656D7371
:102D4000204C61626F7261746F727920776F726B61
:102D5000206E756D2031302063726561746564008A
:102D60004572726F7220466C6173685F4572617361
:102D70006528293A20256C750A0D0000457261739B
:102D80006520466C6173682066726F6D20616464B3
:102D9000726573732030782530386C5820746F203A
:102DA000616464726573732030782530386C582004
:102DB0004F4B0A0D000000004572726F7220466C86
:102DC0006173685F577269746528293A20256C75AC
:102DD0000A0D0000577269746520333220626974ED
:102DE0007320284865783A2030782530386C582987
:102DF00020746F20616464726573732030782530AD
:102E0000386C58204F4B0A0D000000005265616479
:102E1000203332206269747320284465633A202588
:102E20006C7520094865783A2030782530386C5820
:102E3000290000002066726F6D2061646472657302
:102E4000732030782530386C58200A0D00000000BF
:102E5000577269746520313620626974732028487E
:102E600065783A2030782530386C582920746F20E6
:102E7000616464726573732030782530386C582033
:102E80004F4B0A0D0000000052656164203136206E
:102E90006269747320284465633A20256C752009A3
:102EA0004865783A2030782530386C582900000081
:102EB000577269746520363420626974732028481B
:102EC00065783A2030782530386C582920746F2086
:102ED000616464726573732030782530386C5820D3
:102EE0004F4B0A0D0000000052656164203634200B
:102EF0006269747320284465633A20256C75200943
:102F00004865783A2030782530386C582900000020
:102F10000A0A0D2121214572617365207061676580
:102F20002033312121210A0D000000000A21212136
:102F300057726974652121210A0D00005772697466
:102F400065206368617220284865783A20307825CA
:102F500030386C582920746F206164647265737313
:102F60002030782530386C58204F4B0A0D00000077
:102F70002563000002030405060708090A0B0C0D6F
:102F80000E0F101001020000000000000000000001
:102F900001020304060708090000000001020304FF
:102FA000232D302B2000686C4C0065666745464732
:102FB00000303132333435363738394142434445B5
:102FC0004600303132333435363738396162636424
:042FD0006566000032
:042FD40031010008BF
:042FD8000D010008DF
:102FDC000024F4001000000001000000100000208C
:102FEC0000000000000000000000000000000000D5
:102FFC0000000000000000000000000000000000C5
:10300C0000000000000000000000000000000000B4
:10301C0000000000000000000000000000000000A4
:10302C000000000000000000000000000000000094
:10303C000000000000000000000000000000000084
:04000005080006F9F0
:00000001FF
